:020000040001F9
:100000006894FF1F95020100C5020100ED02010086
:10001000C9020100CB020100CD0201000000000076
:10002000000000000000000000000000CF020100FE
:10003000D102010000000000D3020100D50201003E
:10004000F93F01000D400100214001003540010051
:10005000494001005D400100714001008540010000
:1000600099400100AD400100C1400100D5400100B0
:10007000E9400100FD40010011410100254101005E
:10008000394101004D41010061410100754101000C
:10009000894101009D410100B1410100C5410100BC
:1000A000D9410100ED41010001420100154201006A
:1000B000294201003D420100514201006542010018
:1000C000794201008D420100A1420100B5420100C8
:1000D000C9420100DD420100F14201000543010077
:1000E000194301002D430100414301005543010024
:1000F000694301007D43010091430100A5430100D4
:10010000B9430100CD430100E1430100F543010083
:10011000094401001D44010031440100454401002F
:10012000594401006D4401008144010095440100DF
:10013000A9440100BD440100D1440100E54401008F
:10014000F94401000D45010021450100354501003C
:10015000494501005D4501007145010085450100EB
:1001600099450100AD450100C1450100D54501009B
:10017000E9450100FD450100114601002546010049
:10018000394601004D4601006146010075460100F7
:10019000894601009D460100B1460100C5460100A7
:1001A000D9460100ED460100014701001547010055
:1001B000294701003D470100514701006547010003
:1001C000794701008D470100A1470100B5470100B3
:1001D000C9470100DD470100F14701000548010062
:1001E000194801002D48010041480100554801000F
:1001F000694801007D48010091480100A5480100BF
:10020000B9480100CD480100E1480100F54801006E
:10021000094901001D49010031490100454901001A
:10022000594901006D4901008149010095490100CA
:10023000A9490100BD490100D1490100E54901007A
:10024000D7020100D7020100D7020100D702010046
:10025000D7020100D7020100D7020100D702010036
:10026000D7020100D7020100D7020100D702010026
:10027000D7020100D7020100D7020100D702010016
:10028000DFF80CD000F0E4F900480047CB0601008D
:100290006894FF1F10484FF0770101600F484FF03E
:1002A000770101600E484FF4885101600A484FF011
:1002B0007601016009484FF07601016009488047E6
:1002C00009480047FEE7FEE7FEE7FEE7FEE7FEE738
:1002D000FEE7FEE7FEE7FEE7040805400C080540E0
:1002E000000805401556010081020100704669466C
:1002F00006F0CCFEFFF7FEFF2DE9F05F054600207B
:1003000092469B4688460646814640241BE0284686
:1003100041464746224600F0F7F853465A46C01A6F
:10032000914110D311461846224600F0DEF82D1AEE
:1003300067EB01084F4622460120002100F0D5F866
:1003400017EB00094E41201EA4F10104DFDC4846F2
:1003500031462A464346BDE8F09F40EA01039B0729
:1003600003D009E008C9121F08C0042AFAD203E02A
:1003700011F8013B00F8013B521EF9D27047D2B28E
:1003800001E000F8012B491EFBD270470022F6E77E
:1003900010B513460A4604461946FFF7F0FF2046FB
:1003A00010BD2DE9F04D81EA030404F0004B21F06B
:1003B000004514464FF0000A23F0004150EA0502C0
:1003C00020D054EA01021DD0C5F30A570246C5F3F6
:1003D0001303C1F31300C1F30A5640F4801543F42C
:1003E0008013A7EB0608101BD64608F2FD3873EB06
:1003F000050002D308F1010801E092185B41B8F151
:10040000000F03DA00200146BDE8F08D00204FF414
:100410008011064684460EE0171B73EB050705D3D3
:10042000121B63EB050306434CEA010C49084FEA33
:10043000300092185B4150EA0107EDD152EA030007
:1004400012D082EA040083EA0501084305D0101B9C
:10045000AB4106D20122002306E000224FF0004308
:1004600002E06FF0010253101AEB06004CEB08514A
:1004700010EB0A0041EB0B01BDE8F04D00F08BB82A
:100480000EB540F2334102910021CDE900110A4638
:100490000B4600F08FF803B000BD0EB540F23342BA
:1004A00002920022CDE90022134600F083F803B047
:1004B00000BD01F0004330B421F0004150EA0102D8
:1004C00006D00A0DA2F56072C1F31301002A02DC06
:1004D00030BC00207047440F44EAC104C100E0185A
:1004E00030BC00EBC25000F01FB8202A04DB203AD9
:1004F00000FA02F1002070479140C2F1200320FA77
:1005000003F3194390407047202A04DB203A21FA74
:1005100002F00021704721FA02F3D040C2F120021C
:1005200091400843194670470029A8BF7047401CF6
:10053000490008BF20F00100704710B4B0FA80FCF9
:1005400000FA0CF050EA010404BF10BC704749B136
:10055000CCF1200421FA04F411FA0CF118BF0121A6
:1005600021430843A3EB0C01CB1D4FEA00614FEA86
:10057000102042BF002010BC704700EBC350104455
:100580000029A4BF10BC7047401C490008BF20F0E0
:10059000010010BC704710B5141E73F1000408DA96
:1005A000401C41F1000192185B411A4301D120F037
:1005B000010010BD2DE9F04D92469B4611B1B1FAF4
:1005C00081F202E0B0FA80F220329046FFF78DFF10
:1005D00004460F4640EA0A0041EA0B0153465A46D8
:1005E000084313D0114653EA010019D0C8F1400264
:1005F0005046FFF789FF05460E465046594642468B
:10060000FFF773FF084305D0012004E02046394678
:10061000BDE8F08D0020054346EAE0762C433743E1
:100620000A986305E40AA0EB08000022FD0A44EAE8
:1006300047540A3002D500200146E9E701051019A8
:100640006941DDE9084500196941BDE8F04DA2E7BF
:10065000064C074D06E0E06840F0010394E807000F
:1006600098471034AC42F6D3FFF70EFE8C9401008D
:10067000AC94010070B58C1810F8015B15F00703FD
:1006800001D110F8013B2A1106D110F8012B03E02B
:1006900010F8016B01F8016B5B1EF9D12B0705D433
:1006A0000023521E0DD401F8013BFAE710F8013B7C
:1006B000CB1A921C03E013F8015B01F8015B521E98
:1006C000F9D5A142D8D3002070BD10B504F03CFF8D
:1006D00007F05EFB002010BD2DE9F041054688467D
:1006E0001646002435E001211C4802F093FE01214A
:1006F0001A4803F0ADF90021184803F0A9F9314672
:10070000164803F0E7F90746BFB904EB4400285C3C
:10071000411033460022114803F07EFA07460A20B2
:1007200001F05CF84FB904EB4400401C411933461A
:1007300002220A4803F0E6FA07463146074803F06A
:1007400013FA0021054802F065FE0A2001F046F880
:10075000641C4445C7D33846BDE8F08100E004403E
:1007600070B504460D4600BF2D4884424DD0001D93
:1007700084424AD0001D844247D0001D844244D0A8
:10078000001D844241D0001D84423ED0001D8442A1
:100790003BD0001D844238D0001D844235D0001D5E
:1007A000844232D0001D84422FD0001D84422CD0C0
:1007B000001D844229D0001D844226D0001D8442A1
:1007C00023D0001D844220D0001D84421DD0001D76
:1007D00084421AD0001D844217D0001D844214D0D8
:1007E000001D844211D0001D84420ED0001D8442A1
:1007F0000BD0001D844208D0001D844205D0001D8E
:10080000844202D0001D844200D103E09C2105A057
:1008100000F07CFF00BF206865F30800206070BD19
:10082000040801402E2E5C2E2E5C6472697665727F
:10083000735C686333325F6C6C5F64726976657297
:100840005C7372635C686333325F6C6C5F616F739F
:100850002E6300002DE9F04105460F4616469846E6
:10086000069C6DB14FF40041012002F013FAA8423A
:1008700000D12CB14FF40041012002F001FB0DE04A
:1008800065B94FF40041012002F004FAA84200D1FA
:1008900024B14FF40041012002F042FA6FB14FF44D
:1008A0008041012002F0F6F9B84200D12CB14FF49A
:1008B0008041012002F0E4FA0DE067B94FF4804175
:1008C000012002F0E7F9B84200D124B14FF4804191
:1008D000012002F025FA6EB14FF40051012002F020
:1008E000D9F9B04200D12CB14FF40051012002F0EF
:1008F000C7FA0DE066B94FF40051012002F0CAF9C1
:10090000B04200D124B14FF40051012002F008FAA6
:10091000B8F1000F0DD04FF48051012002F0BAF968
:10092000404500D12CB14FF48051012002F0A8FACB
:100930000FE0B8F1000F0CD14FF48051012002F00C
:10094000A9F9404500D124B14FF48051012002F0B3
:10095000E7F9BDE8F0812DE9F041054688461646E5
:100960001F46069C6DB14FF40041012002F092F940
:10097000A84200D12CB14FF40041012002F080FACE
:100980000DE065B94FF40041012002F083F9A8425F
:1009900000D124B14FF40041012002F0C1F96EB141
:1009A0004FF40051012002F075F9B04200D12CB192
:1009B0004FF40051012002F063FA0DE066B94FF4E4
:1009C0000051012002F066F9B04200D124B14FF489
:1009D0000051012002F0A4F96FB14FF480510120C1
:1009E00002F058F9B84200D12CB14FF480510120E7
:1009F00002F046FA0DE067B94FF48051012002F091
:100A000049F9B84200D124B14FF48051012002F0DD
:100A100087F9BDE8F081000010B586B0044601A852
:100A200002F0BAFA0220ADF806000020ADF814007A
:100A30002020ADF80A000020ADF8080054B1ADF850
:100A40000E00ADF804000DA006F00CF801200E49D0
:100A500008700BE04020ADF80E000120ADF8040056
:100A60000AA005F0FFFF02200749087001AA4FF411
:100A70008071002002F010F806B010BD436F6E6E5A
:100A8000656374655F6F6E004E80FF1F436F6E6E0F
:100A9000656374655F6F6666000000001FB5012224
:100AA0000321052001F09AFF02A800F07FFC6846B0
:100AB00000F020FB2B492C4800F045FB00208DF86E
:100AC0000A0030208DF8090000208DF8080005206C
:100AD0008DF80C0002A800F0C5FB002001900198E1
:100AE00020F01F0001903121019861F31020019046
:100AF000019820F0704000F180500190019820F0A2
:100B0000706000F180700190019820F4700000F591
:100B10008010019000208DF80000019820F08000E6
:100B20000190684600F092F900BF202000F0F6F82E
:100B30000128FAD100221146042004F00DF9012207
:100B400011460B2004F008F9502001F08DFD4FF400
:100B5000404002F0D9F904F053F8052000F0FDFA06
:100B60001FBD0000102211007777770700B585B010
:100B7000684602F011FA0220ADF802006A4601212F
:100B8000002001F089FF6A460221002001F084FF65
:100B90006A460421002001F07FFF05B000BD10B5BA
:100BA000044604F0010018B10121002002F068F9A8
:100BB00004F0020018B10221002002F061F904F0F3
:100BC000040018B10421002002F05AF910BD10B53C
:100BD000044604F0010018B10121002002F0A0F841
:100BE00004F0020018B10221002002F099F804F08C
:100BF000040018B10421002002F092F810BD10B5D5
:100C0000044604F0010020B10121002002F088F820
:100C100003E00121002002F033F904F0020020B1CA
:100C20000221002002F07CF803E00221002002F003
:100C300027F904F0040020B10421002002F070F82C
:100C400003E00421002002F01BF910BD10B504469A
:100C500004F0010018B10121002002F0ADF904F008
:100C6000020018B10221002002F0A6F904F00400ED
:100C700018B10421002002F09FF910BDF0B58DB02D
:100C800007460D466FF00206002D3ED020220421BB
:100C9000052002F089F80121880601F0ABFD01A8CA
:100CA00005F0E8FD4FF400400890002201A9184823
:100CB00005F0E4FC002425E02146154805F078FC09
:100CC0000CAA2946124805F0E7FB0646BEB99DED81
:100CD0000C0ADFED100AB4EEE00AF1EE10FA0EDBBA
:100CE0009DED0C0ADFED0C0AB4EEE00AF1EE10FA0D
:100CF00005D801220821064805F0A6FA04E04FF0C5
:100D0000FF36641C032CD7D900BF30460DB0F0BDB0
:100D100000100240CDCCCCBCCDCCCC3C10B50446B0
:100D200000BF24B144F06900692800D104E04FF409
:100D3000B26106A000F0EAFC00BF10480078204035
:100D400008B1012010BD0020FCE700002E2E2F2E40
:100D50002E2F647269766572732F686333325F6C0D
:100D60006C5F6472697665722F7372632F68633388
:100D7000325F6C6C5F636C6B2E6300003C4005401F
:100D800070B50446002500BF0CB1012C00D104E071
:100D900040F2E6411FA000F0B9FC00BF00BF2948A7
:100DA000008800F0010000B104E040F2E74119A022
:100DB00000F0ACFC00BF64B92348007800F00700E5
:100DC000052801D1C54322E001201F49091D0870F3
:100DD0001DE01D48DA300068C0F3C01030B94FF490
:100DE0008051082000F0C1F9054605E04FF480511C
:100DF000012000F0BAF905464DB900201249091D3D
:100E000008704FF48051202000F0AFF905462846C5
:100E100070BD00002E2E2F2E2E2F64726976657203
:100E2000732F686333325F6C6C5F647269766572CE
:100E30002F7372632F686333325F6C6C5F636C6B0C
:100E40002E630000FE430540264005402DE9F04199
:100E5000044614B96FF002061FE100BF2079C0F309
:100E6000C01018B12079C0F3C01000B104E040F206
:100E7000B9418BA000F04AFC00BF00BF207900F010
:100E80001F00401C182805D8207900F01F00401CC6
:100E900000B104E040F2BA4181A000F037FC00BF8D
:100EA00000BF6068C0F30820401CB0F5F07F06D892
:100EB0006068C0F30820401C142800D304E040F20E
:100EC000BB4177A000F022FC00BF00BF0121606899
:100ED00001EB1070102805D8606801EB1070022833
:100EE00000D304E040F2BC416DA000F00FFC00BF55
:100EF0002079C0F3C01008B9754901E07548016850
:100F0000207900F01F00401CB1FBF0F76068C0F3CF
:100F10000820401C00FB07F500BF6F48874203D83C
:100F20006E48874200D304E040F2C1415CA000F06B
:100F3000EDFB00BF00BF6A48854203D840108542E0
:100F400000D304E040F2C24155A000F0DFFB00BF37
:100F500000BF0121606801EB1070B5FBF0F0614942
:100F6000884209D80121606801EB1070B5FBF0F0F0
:100F70005D49884200D304E040F2C34148A000F03C
:100F8000C5FB00BF00BF6068C0F30360401C1028B1
:100F900006D86068C0F30360401C022800D304E058
:100FA00040F2C4413EA000F0B1FB00BF00BF60684A
:100FB000C0F30350401C102806D86068C0F30350EB
:100FC000401C022800D304E040F2C54134A000F0E8
:100FD0009DFB00BF00BF6068C0F30350401CB5FB21
:100FE000F0F04049884209D86068C0F30350401CC3
:100FF000B5FBF0F03C49884200D304E040F2C64122
:1010000027A000F083FB00BF00BF6068C0F303604F
:10101000401CB5FBF0F03349884209D86068C0F342
:101020000360401CB5FBF0F02F49884200D304E078
:1010300040F2C7411AA000F069FB00BF00BF207852
:10104000012801D0207800B904E040F2C94114A081
:1010500000F05CFB00BF00BF2448008800F00100E6
:1010600000B104E040F2CA410DA000F04FFB00BF08
:101070002079C1091E48006861F3C7101C49086047
:1010800060680860207820B90120FFF779FE0646E5
:1010900003E00020FFF774FE06463046BDE8F0810D
:1010A0002E2E2F2E2E2F647269766572732F686331
:1010B00033325F6C6C5F6472697665722F73726332
:1010C0002F686333325F6C6C5F636C6B2E63000060
:1010D00000127A006881FF1F40787D0140420F00B6
:1010E00000389C1C00C2EB0BC0E1E400FE4305404D
:1010F000004105400146002009B9C01E22E000223F
:101100004A604A6822F080024A604A6822F01F0260
:101110004A6013234A6863F310224A604A6822F047
:10112000704202F180524A604A6822F0706202F115
:1011300080724A604A6822F4700202F580124A60A6
:1011400001220A70704770B504460D4629462046B4
:1011500003F078FE04F0F8F970BD10B5044620469F
:1011600004F008F804F0F0F910BDF8B505460C4697
:10117000002000906FF0070609E02846FFF7CEFD3B
:10118000012801D1002605E00098401C009000983D
:10119000A042F2D900BF3046F8BD000070B5044649
:1011A000002500BF0CB1012C00D104E040F2A931B0
:1011B0001EA000F0ABFA00BF00BF2848008800F076
:1011C000010000B104E040F2AA3118A000F09EFA3C
:1011D00000BFFCB92248007800F00700032802D1C4
:1011E0006FF0050520E01E48DA300068C0F3C0103B
:1011F00058B91B48001D007810B96FF0050513E0C1
:10120000012017490C3108700EE0012014490C31FF
:10121000087009E0002012490C3108704FF4805129
:101220000820FFF7A2FF0546284670BD2E2E2F2E60
:101230002E2F647269766572732F686333325F6C28
:101240006C5F6472697665722F7372632F686333A3
:10125000325F6C6C5F636C6B2E630000FE43054075
:101260002640054070B5044614B96FF002057FE0D2
:1012700000BF2078012801D0207800B904E040F2B6
:1012800089313CA000F042FA00BF00BF607840B155
:101290006078102805D06078202802D06078302847
:1012A00000D104E040F28A3132A000F02FFA00BFF2
:1012B00000BFA07810B1A078402800D104E040F22F
:1012C0008B312CA000F022FA00BF00BFE07880280C
:1012D00001D0E07800B904E04FF4637125A000F07C
:1012E00015FA00BF00BF2079012817D02079022805
:1012F00014D02079032811D0207904280ED0207929
:1013000005280BD02079062808D02079072805D099
:101310002079082802D02079092800D104E040F281
:101320008D3114A000F0F2F900BF00BF1D48008805
:1013300000F0010000B104E040F28E310DA000F099
:10134000E5F900BF207918490870E0786178084312
:10135000A1780843134912310870207820B9012080
:10136000FFF71CFF054603E00020FFF717FF0546C7
:10137000284670BD2E2E2F2E2E2F64726976657230
:10138000732F686333325F6C6C5F64726976657269
:101390002F7372632F686333325F6C6C5F636C6BA7
:1013A0002E630000FE430540A24005400146002098
:1013B00009B9C01E08E001220A7000228A704A7032
:1013C0008022CA7005220A7170470000012004497A
:1013D00008700846007840F0200008707047000050
:1013E0002580FF1F0120044908700846007840F05E
:1013F00040000870704700002580FF1F012004494D
:1014000008700846007840F08000087070470000BF
:101410002580FF1F0120044908700846007840F02D
:1014200010000870704700002580FF1F2DE9F84369
:101430000546894616461F46DDF8208006B96E46E9
:1014400001212B4801F0E6FF0121294802F000FBB1
:101450000021274802F0FCFA4146254802F03AFBF9
:1014600004468CB9691043460022214802F0D4FB9F
:1014700004460A2000F0B2F934B943463A464946D8
:101480001B4802F03FFC04460A2000F0A7F9414641
:10149000174802F099FA0446DCB9012F03D1B902CA
:1014A000134801F0CDFD691043460122104802F0B7
:1014B000B3FB04460A2000F091F934B943463A469A
:1014C00031460B4802F086F904460021084801F035
:1014D000B7FD1CB14146064802F046FB0021044816
:1014E00001F098FF0A2000F079F92046BDE8F88362
:1014F00000E004402DE9F04F2DED088B89B08346C4
:10150000894601200490801E039000BF6D488345EA
:1015100008D06D48834505D06C48834502D06C489F
:10152000834500D104E040F29D116AA000F0EEF87E
:1015300000BFD9F80040D9F80460002C7CD0002E00
:10154000FCD0B000B4FBF0F0451EFF2D77D8C9F8F1
:101550000850B000B4FBF0F100FB11400590059875
:1015600030B99FED690A89ED040A0020039066E016
:1015700000206A1C40EB000C04230021A2FB030E98
:101580000CFB03E302FB0132A0FB067302FB0632F5
:1015900000FB01284FF480710022A7FB01C308FB68
:1015A000013107FB021052084FEA34031CEB030120
:1015B000504122460023CDE9001008460199FEF76C
:1015C0009BFE8021B0EB010ABAF17F0F35D8C9F834
:1015D0000CA0490000203A46A2FB01CE08FB01E125
:1015E00007FB0018674680211AEB010240EB00035D
:1015F0000021A2FB040C03FB04C302FB0131CDE973
:10160000060138464146FEF748FF41EC1A0BDDE97A
:101610000601FEF742FF53EC1A2BFEF7C2FEFEF75F
:1016200048FF00EE100AF7EE000A30EE608A89EDFE
:10163000048A0020039002E03EE000200490049819
:10164000D0BB04EB84004000B100B0FBF1F0401DC2
:101650000A21B0FBF1F0451EFF2D2DD8C9F8085026
:1016600000206B1C404104214FF0000CA3FB012E15
:1016700000FB01E003FB0C016346A2FB067C01FBBF
:1016800006C102FB031838464146FEF706FF41EC4F
:101690001A0B2046FEF7F4FE53EC1A2BFEF781FEE0
:1016A000FEF707FF00EE100AF7EE000A30EE608A40
:1016B00089ED048A00200390039809B0BDEC088BE3
:1016C000BDE8F08F00D0014000D40140001002407E
:1016D000001402402E2E2F2E2E2F64726976657212
:1016E000732F686333325F6C6C5F64726976657206
:1016F0002F7372632F686333325F6C6C5F75736135
:1017000072742E63000000000000000004460D46C5
:101710002A46214602A005F0A5F900BFFEE7000019
:1017200057726F6E6720706172616D657465727358
:101730002076616C75653A2066696C65202573209A
:101740006F6E206C696E652025640D0A0000000034
:1017500038B50246002300250095D81E00BF0D4D68
:101760002D682C4600BF0C4D2D68294689B105E037
:101770000D6805F08003009D6D1C0095009DA5423D
:1017800001D8002BF4D013B18A80002001E06FF063
:10179000070038BD0C80FF1F0880FF1F08B50D49EA
:1017A000096AC1F302630C490968D94042F2107317
:1017B0001944491EB1FBF3F206E0009200BF009904
:1017C0004B1E00930029FAD1011EA0F10100F4D1B3
:1017D00008BD0000004005406481FF1F08B50C49AA
:1017E000096AC1F302630B490968D9400A4B1944DD
:1017F000491EB1FBF3F206E0009200BF00994B1EB8
:1018000000930029FAD1011EA0F10100F4D108BD16
:10181000004005406481FF1F809698002DE9F04745
:1018200004460D469146002700BF6E48844202D010
:101830006D48844200D104E04FF4AD716BA0FFF716
:1018400065FF00BF00BF032D00D804E040F25B112C
:1018500066A0FFF75BFF00BF00BFB9F1000F02D029
:10186000B9F1010F00D104E04FF4AE715FA0FFF7B2
:101870004DFF00BF6948007800287DD101206749ED
:101880000870E0690121A94020EA010ABAF1000FBD
:1018900073D0E06900F00100D8B1D5B1A06C4FEA77
:1018A0001048A06E060C0A2E13D8464511D20BE044
:1018B000781C87B2B7F5A04F06D9002057490870A9
:1018C0006FF00700BDE8F087E06900F00100002834
:1018D000EED1E06900F0020002281ED1012D1CD0DB
:1018E000D4F888004FEA1048D4F8A800060C0A2E55
:1018F00013D8464511D200270AE0781C87B2B7F505
:10190000A04F05D90020454908706FF00700D9E7BE
:10191000E06900F002000028EFD1E06900F0040067
:1019200004281ED1022D1CD00027D4F8C8004FEA8D
:101930001048D4F8E800060C0A2E12D8464510D2FA
:101940000AE0781C87B2B7F5A04F05D900203349CB
:1019500008706FF00700B5E7E06900F004000028A8
:10196000EFD1E06900F00800082821D1032D1FD035
:101970000027D4F8080101E030E019E04FEA1048F0
:10198000D4F82801060C0A2E12D8464510D20AE0D7
:10199000781C87B2B7F5A04F05D900201F49087001
:1019A0006FF007008EE7E06900F008000028EFD133
:1019B000B9F1010F07D1E1690120A84000F00F0043
:1019C0000143E16106E0E0690121A9400F228A4359
:1019D0001040E06100201149087073E74FF0FF30BC
:1019E00070E7000000300540003405402E2E5C2ECC
:1019F0002E5C647269766572735C686333325F6C07
:101A00006C5F6472697665725C7372635C68633381
:101A1000325F6C6C5F646D612E6300001080FF1F8D
:101A200070B504460D4600BF0F48844202D00F48EF
:101A3000844200D104E040F243110DA0FFF766FE9E
:101A400000BF00BF2DB145F00F10B0F10F1F00D146
:101A500004E04FF4A27106A0FFF758FE00BFA06992
:101A60002843A06170BD00000030054000340540EF
:101A70002E2E5C2E2E5C647269766572735C6863D0
:101A800033325F6C6C5F6472697665725C7372632B
:101A90005C686333325F6C6C5F646D612E63000061
:101AA00070B504460D4600BF0B48844202D00B4877
:101AB000844200D103E0DA2109A0FFF727FE00BF2E
:101AC00000BF0DB1012D00D103E0DB2104A0FFF721
:101AD0001DFE00BF256070BD00300540003405408C
:101AE0002E2E5C2E2E5C647269766572735C686360
:101AF00033325F6C6C5F6472697665725C737263BB
:101B00005C686333325F6C6C5F646D612E630000F0
:101B100010B58EB00121880300F01CFE0121C8031E
:101B200000F018FE0121480400F014FE06A800F0A1
:101B3000E1FA4FF48050069001200A904FF4FA70B9
:101B40000B90002009905D4808905D4807900020A8
:101B50000C9004200D9006AA00215A4800F000F9CC
:101B60000446002C62D103A800F026FA4FF48060EE
:101B70000390002004905448059003AA0021514886
:101B800000F0A6F950490798086008984860DDE918
:101B90000A0140EA01404C49886008468861DDE955
:101BA0000C0108430999084306990843039908431F
:101BB000049908434449C86101220021414800F0CA
:101BC00049FA01213F4800F001FA40F23F113F4835
:101BD000FEF7C6FD2020ADF804000020ADF8060099
:101BE0003B48029001A802F093F9BDF9060004F009
:101BF0005DFFBDF906000F2104F078FFBDF9060076
:101C000004F062FF4FF4937130482038FEF7A8FDCE
:101C100001212C48FFF744FF01221146294800F01A
:101C20007BFA012200212748FFF7F8FD06A800F003
:101C300061FA4FF48050069001200A904FF4FA7038
:101C40000B90002009901E48801E08901B480790AA
:101C500001200C9000200D9006AA00211D4800F0E4
:101C60007FF8044634BB2420ADF804000120ADF811
:101C700006001948029001A802F04AF9BDF90600D1
:101C800004F014FFBDF906000F2104F02FFFBDF989
:101C9000060004F019FF40F227110C481038FEF737
:101CA0005FFD01210B48FFF7FBFE012211460948A9
:101CB00000F032FA20460EB010BD00008884FF1FED
:101CC00006140240003005407C86FF1F34080140A6
:101CD000914C010000340540E95E010070B50446F6
:101CE0000D4600BF1048844202D01048844200D103
:101CF00004E040F2E3410EA0FFF708FD00BF00BF83
:101D0000032D00D804E040F2E44109A0FFF7FEFCF7
:101D100000BF04F1680000EB851000684FF6FF710A
:101D200001EA104070BD000000300540003405405D
:101D30002E2E5C2E2E5C647269766572735C68630D
:101D400033325F6C6C5F6472697665725C73726368
:101D50005C686333325F6C6C5F646D612E6300009E
:101D60002DE9F04106460D4614464FF0000800BF2D
:101D70004948864202D04948864200D104E040F2F8
:101D8000613147A0FFF7C2FC00BF00BF032D00D8A0
:101D900004E040F2623142A0FFF7B8FC00BF14B982
:101DA0006FF0020874E000BFE06838B1E068B0F599
:101DB000807F03D0E068B0F5007F00D104E040F2FE
:101DC000673137A0FFF7A2FC00BF00BFA06928B1B0
:101DD000A069012802D0A069022800D104E04FF4D4
:101DE0005A712FA0FFF792FC00BF00BFE06928B135
:101DF000E069042802D0E069082800D104E040F23C
:101E0000693127A0FFF782FC00BF00BF2069B0F551
:101E1000806F00D204E040F26A3121A0FFF776FC27
:101E200000BF00BF2068B0F5805F01D0206800B916
:101E300004E040F26B311AA0FFF768FC00BF06F126
:101E4000400000EB85106168016006F1440000EB82
:101E50008510A1680160A18A206940EA014106F16C
:101E6000480000EB8510016006F15C0000EB85176F
:101E7000E16820680843A1690843E169084341F229
:101E80000F310840396841F20F32914308433860FE
:101E90004046BDE8F08100000030054000340540B8
:101EA0002E2E5C2E2E5C647269766572735C68639C
:101EB00033325F6C6C5F6472697665725C737263F7
:101EC0005C686333325F6C6C5F646D612E6300002D
:101ED0002DE9F04106460D4614464FF0000800BFBC
:101EE0002748864202D02748864200D104E040F2CB
:101EF000214125A0FFF70AFC00BF00BF032D00D839
:101F000004E040F2224120A0FFF700FC00BF14B91A
:101F10006FF0020831E000BF2068B0F5806F01D09B
:101F2000206800B904E040F2274117A0FFF7EEFB5C
:101F300000BF00BF6068B0F5006F01D0606800B9F5
:101F400004E04FF4856110A0FFF7E0FB00BF06F14D
:101F50005C0000EB85172088A188084300F44060EE
:101F6000396821F4406108433860A06820F003011B
:101F700006F1580000EB851001604046BDE8F08195
:101F800000300540003405402E2E5C2E2E5C64721D
:101F900069766572735C686333325F6C6C5F647220
:101FA000697665725C7372635C686333325F6C6C14
:101FB0005F646D612E6300000146002009B9C01EF8
:101FC00003E000220A604A608A60704770B50446E8
:101FD0000D4600BF1148844202D01148844200D10E
:101FE00004E040F266410FA0FFF790FB00BF00BF86
:101FF0000DB1012D00D104E040F2674109A0FFF7C7
:1020000085FB00BF012D04D1E06A40F00100E062D1
:1020100003E0E06A20F00100E06270BD003005409E
:10202000003405402E2E5C2E2E5C6472697665723B
:10203000735C686333325F6C6C5F6472697665727F
:102040005C7372635C686333325F6C6C5F646D6198
:102050002E63000070B504460E46154600BF1748B3
:10206000844202D01648844200D104E040F27A4112
:1020700014A0FFF74BFB00BF00BF032E00D804E005
:1020800040F27B410FA0FFF741FB00BF00BF0DB145
:10209000012D00D104E040F27C410AA0FFF736FB9D
:1020A00000BF300240EA450040F602710840E16A94
:1020B00040F6027291430843E06270BD0030054073
:1020C000003405402E2E5C2E2E5C6472697665729B
:1020D000735C686333325F6C6C5F647269766572DF
:1020E0005C7372635C686333325F6C6C5F646D61F8
:1020F0002E6300000146002009B9C01E0AE000223C
:102100000A604A608A60CA600A6101224A6100224C
:102110008A61CA617047000070B504460D461646D4
:1021200000BF1748844202D01648844200D104E020
:102130004FF4907114A0FFF7E9FA00BF00BF2DB172
:1021400045F00F10B0F10F1F00D104E040F2211153
:102150000DA0FFF7DBFA00BF00BF0EB1012E00D1CA
:1021600004E04FF4917108A0FFF7D0FA00BF1EB948
:1021700020692843206102E02069A843206170BDE6
:1021800000300540003405402E2E5C2E2E5C64721B
:1021900069766572735C686333325F6C6C5F64721E
:1021A000697665725C7372635C686333325F6C6C12
:1021B0005F646D612E63000010B5044600BF1148D6
:1021C0000068012800D104E04FF4F4710EA0FFF77D
:1021D0009DFA00BF00BF40F23F10204340F23F1184
:1021E000884200D104E040F2E91107A0FFF78EFA1F
:1021F00000BF0448143000682043024914310860CD
:1022000010BD0000000401402E2E2F2E2E2F6472D0
:1022100069766572732F686333325F6C6C5F6472CA
:10222000697665722F7372632F686333325F6C6CEB
:102230005F65666D2E63000010B5044600BF0CB1EB
:10224000012C00D104E040F2BB3103A0FFF75EFA9D
:1022500000BF0D48046010BD2E2E2F2E2E2F64724D
:1022600069766572732F686333325F6C6C5F64727A
:10227000697665722F7372632F686333325F6C6C9B
:102280005F65666D2E6300008081204210B50446B4
:1022900000BF40F23F10204340F23F11884200D17E
:1022A00004E04FF4ED7106A0FFF730FA00BF1048CC
:1022B00000682040A04201D1012010BD0020FCE7B1
:1022C0002E2E2F2E2E2F647269766572732F6863FF
:1022D00033325F6C6C5F6472697665722F73726300
:1022E0002F686333325F6C6C5F65666D2E63000030
:1022F000100401402DE9FF5F044689461546002081
:102300000390A808029005F0030BC846274600BFBB
:1023100070480068012800D104E04FF40E716EA0EF
:10232000FFF7F4F900BF00BF77480068012800D12B
:1023300004E040F2392168A0FFF7E8F900BF00BFD0
:10234000B4F5002F0BD37148844202D37048844205
:1023500005D97048844203D3B4F1467F00D204E02B
:1023600040F23A215CA0FFF7D1F900BF00BF60192D
:10237000401EB0F5002F13D36019401E63498842F8
:1023800004D36019401E6249884209D96019401E71
:102390006049884205D36019401EB0F1467F00D2E3
:1023A00004E040F23B214CA0FFF7B0F900BF00BFB2
:1023B00004F0030000B904E04FF40F7146A0FFF7EA
:1023C000A5F900BF002640F23F10FFF7F5FE414897
:1023D00008300068504900EA010A3E4808300068A9
:1023E000C94308403B4908310860081D006820F0D7
:1023F000700040F01000091D086020E058F8040B40
:1024000001C74648006AC0F3026145480068C840F9
:1024100044F62061B0FBF1F04FF48071009001FAB6
:1024200006F0009900F07EF910F1080F02D16FF06C
:1024300004000390102101FA06F0FFF7BDFE029898
:10244000411E02910028D9D1BBF1000F2AD0D8F843
:10245000000001904FEACB014FF0FF308840019916
:1024600008430190019801C72C48006AC0F302613B
:102470002B480068C84044F62061B0FBF1F04FF4EF
:102480008071009001FA06F0009900F04BF910F10C
:10249000080F02D16FF004000390102101FA06F03A
:1024A000FFF78AFE0B480C30006820F070000949E5
:1024B0000C310860081F00681749C9430840C94328
:1024C0000AEA01010843034908310860039804B08F
:1024D000BDE8F09F000401402E2E2F2E2E2F647297
:1024E00069766572732F686333325F6C6C5F6472F8
:1024F000697665722F7372632F686333325F6C6C19
:102500005F65666D2E63000080812042000C000331
:10251000FB0F0003E0FF170300000101004005402E
:102520006481FF1F2DE9F0410446002700BFB4F588
:10253000002F00D204E040F247313AA0FFF7E6F85E
:1025400000BF00BF04F0030000B904E04FF4527173
:1025500034A0FFF7DBF800BF00BF3E480068012849
:1025600000D104E040F24A312EA0FFF7CFF800BFBF
:1025700000BF39480068012800D104E040F24B3127
:1025800028A0FFF7C3F800BF40F23F10FFF714FE8A
:10259000304808300068314900EA01062D4808300B
:1025A0000068C94308402B49083108600025081D10
:1025B000006820F0700040F04000091D0860002015
:1025C00020602748006AC0F3026126480068C840BE
:1025D0003221B0FBF1F84FF4807101FA05F0414669
:1025E00000F0A0F810F1080F00D16F1F102101FAC0
:1025F00005F0FFF7E1FD17480C30006820F070008F
:1026000014490C310860081F00681449C943084088
:10261000C943314008430F49083108603846BDE8D6
:10262000F08100002E2E2F2E2E2F64726976657297
:10263000732F686333325F6C6C5F647269766572A6
:102640002F7372632F686333325F6C6C5F65666DE6
:102650002E6300000004014080812042000001013F
:10266000004005406481FF1F70B50446002500BF8F
:102670001D480068012800D104E04FF489711BA0B7
:10268000FFF744F800BF00BFF02C00D804E040F290
:10269000131116A0FFF73AF800BF1348083000687E
:1026A00020F0F00004F0F00108430F490831086001
:1026B00010E06D1C1948006AC0F3026118480068F8
:1026C000C84044F62061B0FBF1F0A84202D26FF09E
:1026D000070070BD04480830006800F0F000A04218
:1026E000E7D10020F5E70000000401402E2E2F2E38
:1026F0002E2F647269766572732F686333325F6C54
:102700006C5F6472697665722F7372632F686333CE
:10271000325F6C6C5F65666D2E63000000400540A3
:102720006481FF1FF8B505460C4600200090002686
:1027300008E00098401C00900098A04202D96FF079
:10274000070604E02846FFF7A1FD0128F1D100BFEC
:102750003046F8BD70B504460D4600BF2CB1174891
:1027600020431649884200D103E0712114A0FEF7EE
:10277000CDFF00BF00BF0DB1012D00D103E07221DC
:102780000FA0FEF7C3FF00BF00BF1948006900F0AB
:10279000010000B103E0732109A0FEF7B7FF00BFFD
:1027A000012D05D112480068A0431149086004E0DA
:1027B0000F48006820430E49086070BD11C5F38FB3
:1027C0002E2E5C2E2E5C647269766572735C686373
:1027D00033325F6C6C5F6472697665725C737263CE
:1027E0005C686333325F6C6C5F6663672E63000006
:1027F0000080044070B504460D4600BF2CB111485E
:1028000020431049884200D103E084210EA0FEF746
:102810007DFF00BF00BF0DB1012D00D103E0852178
:1028200009A0FEF773FF00BF012D05D112484068D3
:10283000A0431149486004E00F48406820430E4916
:10284000486070BD79FD0F0F2E2E5C2E2E5C6472D9
:1028500069766572735C686333325F6C6C5F647257
:10286000697665725C7372635C686333325F6C6C4B
:102870005F6663672E6300000080044070B5044605
:102880000D4600BF2CB1114820431049884200D1A9
:1028900003E096210EA0FEF739FF00BF00BF0DB187
:1028A000012D00D103E0972109A0FEF72FFF00BF03
:1028B000012D05D112488068A0431149886004E0C9
:1028C0000F48806820430E49886070BDFF8707006D
:1028D0002E2E5C2E2E5C647269766572735C686362
:1028E00033325F6C6C5F6472697665725C737263BD
:1028F0005C686333325F6C6C5F6663672E630000F5
:10290000008004402DE9F04106460D46B6F5002F43
:1029100003D36FF00200BDE8F0811DB93046FFF728
:1029200001FEF8E76F0BC5F30C0000B17F1C00241B
:1029300008E006EB4430FFF7F5FD10B14FF0FF3033
:10294000E9E7641CBC42F4D30020E4E72DE9F0433E
:1029500003460E4626B11AB19818B0F5002F03D9D8
:102960006FF00200BDE8F08303F0030010B16FF0D8
:102970000600F7E734461D464FEA920902F00307C6
:10298000002102E001CD01C4491C4945FAD357B1E9
:10299000A446A846002104E018F8010B0CF8010B2E
:1029A000491CB942F8D30020DCE770B504460E4656
:1029B000154626B11DB16019B0F5002F02D96FF090
:1029C000020070BD04F0030010B16FF00600F8E7DC
:1029D0002A4631462046FFF78DFCF2E72DE9F0410B
:1029E00004460D46904600BF4CB1012C07D0022C86
:1029F00005D0032C03D0042C01D0052C00D104E019
:102A00004FF41E7117A0FEF781FE00BF00BF15B185
:102A1000A8B200B104E040F2792112A0FEF776FEE0
:102A200000BF002718E005F0010080B1194800EB55
:102A3000841000EB8706B8F1010F04D1308840F410
:102A40000040308003E03088C0F30E0030806D100D
:102A500005B903E0781CC7B2102FE4D300BFBDE86E
:102A6000F08100002E2E2F2E2E2F64726976657253
:102A7000732F686333325F6C6C5F64726976657262
:102A80002F7372632F686333325F6C6C5F6770699A
:102A90006F2E6300003C05402DE9F05F05460F46B0
:102AA00014464FF0000B14B96FF0020BD5E000BFD5
:102AB0006B48008800F0010000B103E0FF2169A02D
:102AC000FEF724FE00BF00BF4DB1012D07D0022D3F
:102AD00005D0032D03D0042D01D0052D00D104E035
:102AE0004FF480715FA0FEF711FE00BF00BF17B169
:102AF000B8B200B104E040F201115AA0FEF706FEA0
:102B000000BF00BF208810B12088012800D104E058
:102B10004FF4817153A0FEF7F9FD00BF00BF60883C
:102B200010B16088022800D104E040F203114DA0EA
:102B3000FEF7ECFD00BF00BFA08810B1A0880428FC
:102B400000D104E04FF4827146A0FEF7DFFD00BF24
:102B500000BFE08828B1E088102802D0E088202853
:102B600000D104E040F205113EA0FEF7CFFD00BF0A
:102B700000BF208918B12089B0F5804F00D104E052
:102B80004FF4837137A0FEF7C1FD00BF00BF60891D
:102B900010B16089402800D104E040F2071131A053
:102BA000FEF7B4FD00BF00BFA08918B1A089B0F541
:102BB000007F00D104E04FF484712AA0FEF7A6FD47
:102BC00000BF00BFE08918B1E089B0F5805F00D197
:102BD00004E040F2091123A0FEF798FD00BF00BFFA
:102BE000208A18B1208AB0F5004F00D104E04FF4DC
:102BF00085711CA0FEF78AFD00BF00262BE0012096
:102C0000B040384028B3208861880843A188084331
:102C1000E188084361890843A1890843E1890843A1
:102C2000218940EA010A45F27728208A40EA0A0A07
:102C300048F400480A48001D00EB851000EB8609A7
:102C4000B9F8000020EA08000AEA08010843A9F8D8
:102C50000000701CC6B2102ED1D35846BDE8F09FBC
:102C6000FC3B05402E2E2F2E2E2F64726976657246
:102C7000732F686333325F6C6C5F64726976657260
:102C80002F7372632F686333325F6C6C5F67706998
:102C90006F2E630070B504460D4600BF4CB1012C89
:102CA00007D0022C05D0032C03D0042C01D0052C16
:102CB00000D104E040F2F1110CA0FEF727FD00BFA7
:102CC00000BF15B1A8B200B104E04FF4F97107A03C
:102CD000FEF71CFD00BF114901EB0410B0F800081D
:102CE000284008B1012070BD0020FCE72E2E2F2EB9
:102CF0002E2F647269766572732F686333325F6C4E
:102D00006C5F6472697665722F7372632F686333C8
:102D1000325F6C6C5F6770696F2E63000030054036
:102D200070B504460D4600BF4CB1012C07D0022CF3
:102D300005D0032C03D0042C01D0052C00D104E0D5
:102D400040F23D210BA0FEF7E1FC00BF00BF15B132
:102D5000A8B200B104E040F23E2106A0FEF7D6FC86
:102D600000BF1048102101FB040630882843308042
:102D700070BD00002E2E2F2E2E2F64726976657284
:102D8000732F686333325F6C6C5F6472697665724F
:102D90002F7372632F686333325F6C6C5F67706987
:102DA0006F2E63000A3805402DE9F04104460F46B6
:102DB000164600BF4CB1012C07D0022C05D0032CC5
:102DC00003D0042C01D0052C00D104E040F277118F
:102DD0001EA0FEF79BFC00BF00BF17B1B8B200B148
:102DE00004E04FF4BC7119A0FEF790FC00BF00BFD7
:102DF0000F2E03D9202E02D33B2E00D804E040F240
:102E0000791112A0FEF782FC00BF00BF1B480088AA
:102E100000F0010000B104E04FF4BD710BA0FEF71B
:102E200075FC00BF00250DE00120A840384038B1F6
:102E30001248801D00EB841000EB8508A8F80060A4
:102E4000681CC5B2102DEFD3BDE8F0812E2E2F2EB9
:102E50002E2F647269766572732F686333325F6CEC
:102E60006C5F6472697665722F7372632F68633367
:102E7000325F6C6C5F6770696F2E6300FC3B0540CE
:102E800070B504460D4600BF4CB1012C07D0022C92
:102E900005D0032C03D0042C01D0052C00D104E074
:102EA00040F22B210BA0FEF731FC00BF00BF15B193
:102EB000A8B200B104E04FF40B7106A0FEF726FCA7
:102EC00000BF1048102101FB0406308828433080E1
:102ED00070BD00002E2E2F2E2E2F64726976657223
:102EE000732F686333325F6C6C5F647269766572EE
:102EF0002F7372632F686333325F6C6C5F67706926
:102F00006F2E63000838054010B5044600BF44B179
:102F1000B4F5804F05D0B4F5004F02D0B4F5404F62
:102F200000D104E040F2CD110EA0FEF7EFFB00BF90
:102F300000BF1848008800F0010000B104E04FF421
:102F4000E77108A0FEF7E2FB00BF1248001F0088EF
:102F5000C0F30D0004F4404108430E49091F0880E6
:102F600010BD00002E2E2F2E2E2F647269766572F2
:102F7000732F686333325F6C6C5F6472697665725D
:102F80002F7372632F686333325F6C6C5F67706995
:102F90006F2E6300FC3B05400146002009B9C01EAE
:102FA00009E000220A804A80CA800A820A814A8196
:102FB0008A81CA818A80704770B504460D4600BF79
:102FC0004CB1012C07D0022C05D0032C03D0042CCB
:102FD00001D0052C00D104E04FF418710BA0FEF7CE
:102FE00095FB00BF00BF15B1A8B200B104E040F2EC
:102FF000612106A0FEF78AFB00BF1048102101FBEB
:10300000040630882843308070BD00002E2E2F2EFD
:103010002E2F647269766572732F686333325F6C2A
:103020006C5F6472697665722F7372632F686333A5
:10303000325F6C6C5F6770696F2E63000C380540FF
:1030400070B504460D4600BF1148844205D01148B2
:10305000844202D01048844200D104E040F2E921C9
:103060000EA0FEF753FB00BF00BF15B1B5F5806F92
:1030700000D104E040F2EA2108A0FEF747FB00BFC0
:10308000206820F4806005F480610843206070BDF2
:1030900000E0044000E4044000E804402E2E5C2ED2
:1030A0002E5C647269766572735C686333325F6C40
:1030B0006C5F6472697665725C7372635C686333BB
:1030C000325F6C6C5F6932632E6300002DE9F0475C
:1030D0002DED088B05460C4690464FF0000A002067
:1030E0000AEE900A02200BEE100A9FED6F0AF0EE36
:1030F00040BA14B1B8F1000F02D16FF0020AC6E075
:1031000000BF6A48854205D06948854202D06948B7
:10311000854200D104E04FF4887167A0FEF7F6FA0B
:1031200000BF00BF606820B16F496068884200D866
:1031300004E040F2111160A0FEF7E8FA00BF00BF02
:103140002068072800D804E04FF489715AA0FEF7E0
:10315000DDFA00BF6548006AC0F3023164480068C8
:1031600020FA01F92178012000FA01F6D4ED029A43
:10317000D4ED018A286B00F0100028B1286B00F014
:103180000300401C0AEE900A206810B903200BEEE1
:10319000100ABEB300EE109AB8EE400AB8EE681AF4
:1031A000C0EE010A00EE106AB8EE400A80EE808A96
:1031B000B8EE4B0AF0EE000A20EE200AF8EE6A0A9A
:1031C000B0EE001A01EE200AF8EE690A30EE20AAED
:1031D00038EE4A9ABCEEC80AB8EE400A38EE400A09
:1031E000F6EE000AB4EEE00AF1EE10FA0BDBBCEEEC
:1031F000C80AB8EE400AF7EE000A30EE200AB0EE38
:10320000408A06E041E0BCEEC80AB8EE400AB0EEE3
:10321000408AB4EECA8AF1EE10FA02D86FF0020AC0
:1032200035E09FED340AB4EEC09AF1EE10FA02DDFB
:103230006FF0020A2BE0BCEEC80A10EE100AB9FBD0
:10324000F0F0B0FBF6F7F8EE680A00EE107AB8EE90
:10325000400A70EEC00A00EE107AB8EE400A80EE26
:10326000801AF0EE41BA20880104BCEEC90A10EEC3
:10327000100A41EA5001BCEEC90A10EE100AA0EB98
:10328000500041EA0020E86201E06FF0020AB8F164
:10329000000F04D0BAF1000F01D1C8ED00BA5046BA
:1032A000BDEC088BBDE8F0870000000000E00440A2
:1032B00000E4044000E804402E2E5C2E2E5C647274
:1032C00069766572735C686333325F6C6C5F6472DD
:1032D000697665725C7372635C686333325F6C6CD1
:1032E0005F6932632E630000801A060000400540CB
:1032F0006481FF1F0000784270B504460D4600BF90
:103300001348844205D01348844202D012488442B4
:1033100000D104E04FF4FF7110A0FEF7F7F900BFF1
:1033200000BF0DB1012D00D104E040F2FF110BA050
:10333000FEF7ECF900BF012D04D1E06840F4806095
:10334000E06003E0E06820F48060E06070BD0000B1
:1033500000E0044000E4044000E804402E2E5C2E0F
:103360002E5C647269766572735C686333325F6C7D
:103370006C5F6472697665725C7372635C686333F8
:10338000325F6C6C5F6932632E63000070B5044677
:103390000D4600BF0F48844205D00F48844202D03A
:1033A0000E48844200D104E040F296210CA0FEF7C2
:1033B000ADF900BF00BF2DB115482843144988421C
:1033C00000D104E040F2972105A0FEF79FF900BF6D
:1033D000256270BD00E0044000E4044000E80440C1
:1033E0002E2E5C2E2E5C647269766572735C686347
:1033F00033325F6C6C5F6472697665725C737263A2
:103400005C686333325F6C6C5F6932632E6300000B
:10341000DF52F00070B504460D4600BF0F488442ED
:1034200005D00F48844202D00E48844200D104E007
:1034300040F2DB110CA0FEF769F900BF00BF0DB12F
:10344000012D00D104E04FF4EE7107A0FEF75EF904
:1034500000BF206865F30000206070BD00E00440FC
:1034600000E4044000E804402E2E5C2E2E5C6472C2
:1034700069766572735C686333325F6C6C5F64722B
:10348000697665725C7372635C686333325F6C6C1F
:103490005F6932632E63000010B5044600BF0C481C
:1034A000844205D00B48844202D00B48844200D1AC
:1034B00004E04FF4AB7109A0FEF728F900BF2068C3
:1034C00020F001002060206840F40040206010BD22
:1034D00000E0044000E4044000E804402E2E5C2E8E
:1034E0002E5C647269766572735C686333325F6CFC
:1034F0006C5F6472697665725C7372635C68633377
:10350000325F6C6C5F6932632E63000010B5044655
:1035100000BF0A48844205D00948844202D00948C5
:10352000844200D103E0D32107A0FEF7EFF800BFEB
:10353000206840F08000206010BD000000E00440E2
:1035400000E4044000E804402E2E5C2E2E5C6472E1
:1035500069766572735C686333325F6C6C5F64724A
:10356000697665725C7372635C686333325F6C6C3E
:103570005F6932632E63000010B5044600BF0A483D
:10358000844205D00948844202D00948844200D1CF
:1035900003E0C62107A0FEF7B9F800BF206840F499
:1035A0008070206010BD000000E0044000E4044092
:1035B00000E804402E2E5C2E2E5C647269766572E3
:1035C000735C686333325F6C6C5F647269766572DA
:1035D0005C7372635C686333325F6C6C5F69326327
:1035E0002E63000010B5044600BF0A48844205D08F
:1035F0000948844202D00948844200D103E0E02116
:1036000007A0FEF783F800BF206840F40070206038
:1036100010BD000000E0044000E4044000E8044065
:103620002E2E5C2E2E5C647269766572735C686304
:1036300033325F6C6C5F6472697665725C7372635F
:103640005C686333325F6C6C5F6932632E630000C9
:1036500070B504460D4600BF1248844205D012489A
:10366000844202D01148844200D104E04FF41E711C
:103670000FA0FEF74BF800BF00BF2DB1184828433C
:103680001749884200D104E040F2792108A0FEF7F2
:103690003DF800BFE069284008B1012070BD00205E
:1036A000FCE7000000E0044000E4044000E80440BF
:1036B0002E2E5C2E2E5C647269766572735C686374
:1036C00033325F6C6C5F6472697665725C737263CF
:1036D0005C686333325F6C6C5F6932632E63000039
:1036E000DF56F7002DE9F04104460D46174615B99F
:1036F0006FF002064BE000BF2648844205D0264802
:10370000844202D02548844200D104E040F27F1177
:1037100023A0FDF7FBFF00BF00BF686820B12C4964
:103720006868884200D804E04FF4C0711CA0FDF71F
:10373000EDFF00BF00BF2868072800D804E040F272
:10374000811117A0FDF7E2FF00BF206820F0010003
:103750002060206840F400402060206840F00100B4
:1037600020603A4629462046FFF7B0FC064620680E
:1037700020F040002060206820F400402060206895
:1037800020F001002060206920F480502061304644
:10379000BDE8F08100E0044000E4044000E804409B
:1037A0002E2E5C2E2E5C647269766572735C686383
:1037B00033325F6C6C5F6472697665725C737263DE
:1037C0005C686333325F6C6C5F6932632E63000048
:1037D000801A06002DE9F04706460F461546994621
:1037E0004FF0000800BF3248864205D0314886427B
:1037F00002D03148864200D104E040F276412FA049
:10380000FDF784FF00BF002F4CD0B06800F0800AA5
:1038100000243FE04B4601224021304600F0DAFA16
:103820008046BAF1000F0AD1022D15D3A81EA0427E
:1038300012D14FF480613046FFF702FC0CE0681EA5
:10384000A04204D000213046FFF7FAFB04E04FF419
:1038500080613046FFF7F4FBB8F1000F18D1681E05
:10386000A04206D110213046FFF790FD3046FFF709
:10387000B9FE304600F074F83855681EA04208D1F1
:103880004B4601221021304600F0A4FA804600E0A9
:1038900002E0641CAC42BDD300BF00213046FFF7FC
:1038A000CFFB01E06FF002084046BDE8F087000062
:1038B00000E0044000E4044000E804402E2E5C2EAA
:1038C0002E5C647269766572735C686333325F6C18
:1038D0006C5F6472697665725C7372635C68633393
:1038E000325F6C6C5F6932632E6300002DE9F0413A
:1038F00005460F4690461E4601211848FFF78AFDEF
:103900000121164800F0A4F80021144800F0A0F8A6
:103910003146124800F0DEF804468CB9691033468F
:1039200000220E4800F078F904460A20FDF756FF01
:1039300034B9334642463946084800F0E3F90446B4
:103940003146064800F010F900210448FFF762FDF7
:103950000A20FDF743FF2046BDE8F08100E0044067
:1039600010B5044600BF0948844205D00848844287
:1039700002D00848844200D104E040F2DA2106A0D7
:10398000FDF7C4FE00BF94F8280010BD00E004401D
:1039900000E4044000E804402E2E5C2E2E5C64728D
:1039A00069766572735C686333325F6C6C5F6472F6
:1039B000697665725C7372635C686333325F6C6CEA
:1039C0005F6932632E63000070B504460D4600BF88
:1039D0000F48844205D00F48844202D00E488442EA
:1039E00000D104E040F273310CA0FDF78FFE00BF60
:1039F00001212046FFF7CAFC2046FFF787FD2B4632
:103A000001221249204600F0E5F90646304670BD15
:103A100000E0044000E4044000E804402E2E5C2E48
:103A20002E5C647269766572735C686333325F6CB6
:103A30006C5F6472697665725C7372635C68633331
:103A4000325F6C6C5F6932632E630000010002001C
:103A500070B504460D4600BF0F48844205D00F489C
:103A6000844202D00E48844200D104E040F2A621F4
:103A70000CA0FDF74BFE00BF00BF0DB1012D00D122
:103A800004E040F2A72107A0FDF740FE00BF206838
:103A900065F3CF30206070BD00E0044000E40440D6
:103AA00000E804402E2E5C2E2E5C647269766572EE
:103AB000735C686333325F6C6C5F647269766572E5
:103AC0005C7372635C686333325F6C6C5F69326332
:103AD0002E63000070B504460E4600BF12488442B3
:103AE00005D01248844202D01148844200D104E03B
:103AF00040F256310FA0FDF709FE00BF3346002209
:103B00004FF40031204600F065F905464DB92046D6
:103B1000FFF732FD334601221249204600F05AF9E0
:103B20000546284670BD000000E0044000E4044063
:103B300000E804402E2E5C2E2E5C6472697665725D
:103B4000735C686333325F6C6C5F64726976657254
:103B50005C7372635C686333325F6C6C5F693263A1
:103B60002E6300000100020070B504460D4600BF40
:103B70001448844205D01448844202D01348844239
:103B800000D104E040F2C14111A0FDF7BFFD00BF2C
:103B900004E010212046FFF7F9FB6D1E102120469E
:103BA000FFF756FD012801D1002DF2D12046FFF785
:103BB00019FD2B4601221021204600F00BF9064684
:103BC000304670BD00E0044000E4044000E80440DA
:103BD0002E2E5C2E2E5C647269766572735C68634F
:103BE00033325F6C6C5F6472697665725C737263AA
:103BF0005C686333325F6C6C5F6932632E63000014
:103C00000146002009B9C01E05E04CF250324A605E
:103C100000228A600A6070472DE9F04105460F4690
:103C20001446984600BF2848854205D0274885425B
:103C300002D02748854200D104E04FF4647125A0EA
:103C4000FDF764FD00BF00BF0CB1012C00D104E002
:103C500040F291311FA0FDF759FD00BF00BF7F2F3B
:103C600000D804E040F292311AA0FDF74FFD00BFEA
:103C7000434601228021284600F0ACF80646FEB9F2
:103C8000780644EA1061284600F00CF93CB9434636
:103C900001220821284600F09DF8064607E0434629
:103CA00000224FF48021284600F094F806463EB9E1
:103CB0004FF480512846FFF7CBFC012800D1861E27
:103CC0003046BDE8F081000000E0044000E404401C
:103CD00000E804402E2E5C2E2E5C647269766572BC
:103CE000735C686333325F6C6C5F647269766572B3
:103CF0005C7372635C686333325F6C6C5F69326300
:103D00002E6300002DE9F84304460D4617469846F9
:103D100000260020009000BF1F48844205D01F48A5
:103D2000844202D01E48844200D104E040F20D419A
:103D30001CA0FDF7EBFC00BF45B321E04346012288
:103D40008021204600F046F80646B6B90098295C66
:103D5000204600F0A7F8434601220821204600F043
:103D600039F806464FF480512046FFF771FC0128D0
:103D700000D10AE00098401C00900A20FDF72EFDBB
:103D80000098B84201D0002ED8D001E06FF00206B2
:103D90003046BDE8F883000000E0044000E4044041
:103DA00000E804402E2E5C2E2E5C647269766572EB
:103DB000735C686333325F6C6C5F647269766572E2
:103DC0005C7372635C686333325F6C6C5F6932632F
:103DD0002E6300002DE9F04704460D4616461F46A7
:103DE0006FF0070900BF1F48844205D01E48844277
:103DF00002D01E48844200D103E0A4211CA0FDF79C
:103E000085FC00BF00BF2DB12548284324498842C6
:103E100000D103E0A52116A0FDF778FC00BF00BF8C
:103E20000EB1012E00D103E0A62111A0FDF76EFC1A
:103E300000BF00BFE06900EA0508012E01D1454539
:103E400003D026B9B8F1000F01D14FF00009B9F144
:103E5000000F00D007B901E07F1EEBE700BF484626
:103E6000BDE8F08700E0044000E4044000E80440BE
:103E70002E2E5C2E2E5C647269766572735C6863AC
:103E800033325F6C6C5F6472697665725C73726307
:103E90005C686333325F6C6C5F6932632E63000071
:103EA000DF56F70070B504460D4600BF094884424E
:103EB00005D00948844202D00848844200D104E079
:103EC0004FF4337106A0FDF721FC00BF84F82450A5
:103ED00070BD000000E0044000E4044000E804403D
:103EE0002E2E5C2E2E5C647269766572735C68633C
:103EF00033325F6C6C5F6472697665725C73726397
:103F00005C686333325F6C6C5F6932632E63000000
:103F100070B5044600260CB9F61E4BE000BF2088A1
:103F2000B0F5007F00DA03E0CB2123A0FDF7EEFB24
:103F300000BF2088400900EB4000202101EB400039
:103F4000B4F9021088420AD82088400900EB4000EA
:103F5000252101EB4000B4F90210884206D2B4F9E1
:103F60000200202802D36FF0020623E06088204977
:103F7000042212FB00152868C0F3080040F2FF116C
:103F8000884208D120882860B4F90210194A606874
:103F900042F821000EE020882968C1F30801884218
:103FA00006D1B4F90210134A606842F8210001E01A
:103FB0006FF00106304670BD2E2E2F2E2E2F64720C
:103FC00069766572732F686333325F6C6C5F6472FD
:103FD000697665722F7372632F686333325F6C6C1E
:103FE0005F696E74657272757074732E6300000081
:103FF0005C1005408881FF1F10B5034908688047A1
:10400000BFF34F8F10BD00008881FF1F10B503491B
:1040100048688047BFF34F8F10BD00008881FF1FA5
:1040200010B5034988688047BFF34F8F10BD00006B
:104030008881FF1F10B50349C8688047BFF34F8FC1
:1040400010BD00008881FF1F10B503490869804733
:10405000BFF34F8F10BD00008881FF1F10B50349CB
:1040600048698047BFF34F8F10BD00008881FF1F54
:1040700010B5034988698047BFF34F8F10BD00001A
:104080008881FF1F10B50349C8698047BFF34F8F70
:1040900010BD00008881FF1F10B50349086A8047E2
:1040A000BFF34F8F10BD00008881FF1F10B503497B
:1040B000486A8047BFF34F8F10BD00008881FF1F03
:1040C00010B50349886A8047BFF34F8F10BD0000C9
:1040D0008881FF1F10B50349C86A8047BFF34F8F1F
:1040E00010BD00008881FF1F10B50349086B804791
:1040F000BFF34F8F10BD00008881FF1F10B503492B
:10410000486B8047BFF34F8F10BD00008881FF1FB1
:1041100010B50349886B8047BFF34F8F10BD000077
:104120008881FF1F10B50349C86B8047BFF34F8FCD
:1041300010BD00008881FF1F10B50349086C80473F
:10414000BFF34F8F10BD00008881FF1F10B50349DA
:10415000486C8047BFF34F8F10BD00008881FF1F60
:1041600010B50349886C8047BFF34F8F10BD000026
:104170008881FF1F10B50349C86C8047BFF34F8F7C
:1041800010BD00008881FF1F10B50349086D8047EE
:10419000BFF34F8F10BD00008881FF1F10B503498A
:1041A000486D8047BFF34F8F10BD00008881FF1F0F
:1041B00010B50349886D8047BFF34F8F10BD0000D5
:1041C0008881FF1F10B50349C86D8047BFF34F8F2B
:1041D00010BD00008881FF1F10B50349086E80479D
:1041E000BFF34F8F10BD00008881FF1F10B503493A
:1041F000486E8047BFF34F8F10BD00008881FF1FBE
:1042000010B50349886E8047BFF34F8F10BD000083
:104210008881FF1F10B50349C86E8047BFF34F8FD9
:1042200010BD00008881FF1F10B50349086F80474B
:10423000BFF34F8F10BD00008881FF1F10B50349E9
:10424000486F8047BFF34F8F10BD00008881FF1F6C
:1042500010B50349886F8047BFF34F8F10BD000032
:104260008881FF1F10B50349C86F8047BFF34F8F88
:1042700010BD00008881FF1F10B50349D1F88000F0
:104280008047BFF34F8F10BD8881FF1F10B50349D2
:10429000D1F884008047BFF34F8F10BD8881FF1F86
:1042A00010B50349D1F888008047BFF34F8F10BD88
:1042B0008881FF1F10B50349D1F88C008047BFF3F8
:1042C0004F8F10BD8881FF1F10B50349D1F89000B2
:1042D0008047BFF34F8F10BD8881FF1F10B5034982
:1042E000D1F894008047BFF34F8F10BD8881FF1F26
:1042F00010B50349D1F898008047BFF34F8F10BD28
:104300008881FF1F10B50349D1F89C008047BFF397
:104310004F8F10BD8881FF1F10B50349D1F8A00051
:104320008047BFF34F8F10BD8881FF1F10B5034931
:10433000D1F8A4008047BFF34F8F10BD8881FF1FC5
:1043400010B50349D1F8A8008047BFF34F8F10BDC7
:104350008881FF1F10B50349D1F8AC008047BFF337
:104360004F8F10BD8881FF1F10B50349D1F8B000F1
:104370008047BFF34F8F10BD8881FF1F10B50349E1
:10438000D1F8B4008047BFF34F8F10BD8881FF1F65
:1043900010B50349D1F8B8008047BFF34F8F10BD67
:1043A0008881FF1F10B50349D1F8BC008047BFF3D7
:1043B0004F8F10BD8881FF1F10B50349D1F8C00091
:1043C0008047BFF34F8F10BD8881FF1F10B5034991
:1043D000D1F8C4008047BFF34F8F10BD8881FF1F05
:1043E00010B50349D1F8C8008047BFF34F8F10BD07
:1043F0008881FF1F10B50349D1F8CC008047BFF377
:104400004F8F10BD8881FF1F10B50349D1F8D00030
:104410008047BFF34F8F10BD8881FF1F10B5034940
:10442000D1F8D4008047BFF34F8F10BD8881FF1FA4
:1044300010B50349D1F8D8008047BFF34F8F10BDA6
:104440008881FF1F10B50349D1F8DC008047BFF316
:104450004F8F10BD8881FF1F10B50349D1F8E000D0
:104460008047BFF34F8F10BD8881FF1F10B50349F0
:10447000D1F8E4008047BFF34F8F10BD8881FF1F44
:1044800010B50349D1F8E8008047BFF34F8F10BD46
:104490008881FF1F10B50349D1F8EC008047BFF3B6
:1044A0004F8F10BD8881FF1F10B50349D1F8F00070
:1044B0008047BFF34F8F10BD8881FF1F10B50349A0
:1044C000D1F8F4008047BFF34F8F10BD8881FF1FE4
:1044D00010B50349D1F8F8008047BFF34F8F10BDE6
:1044E0008881FF1F10B50349D1F8FC008047BFF356
:1044F0004F8F10BD8881FF1F10B50349D1F800010F
:104500008047BFF34F8F10BD8881FF1F10B503494F
:10451000D1F804018047BFF34F8F10BD8881FF1F82
:1045200010B50349D1F808018047BFF34F8F10BD84
:104530008881FF1F10B50349D1F80C018047BFF3F4
:104540004F8F10BD8881FF1F10B50349D1F81001AE
:104550008047BFF34F8F10BD8881FF1F10B50349FF
:10456000D1F814018047BFF34F8F10BD8881FF1F22
:1045700010B50349D1F818018047BFF34F8F10BD24
:104580008881FF1F10B50349D1F81C018047BFF394
:104590004F8F10BD8881FF1F10B50349D1F820014E
:1045A0008047BFF34F8F10BD8881FF1F10B50349AF
:1045B000D1F824018047BFF34F8F10BD8881FF1FC2
:1045C00010B50349D1F828018047BFF34F8F10BDC4
:1045D0008881FF1F10B50349D1F82C018047BFF334
:1045E0004F8F10BD8881FF1F10B50349D1F83001EE
:1045F0008047BFF34F8F10BD8881FF1F10B503495F
:10460000D1F834018047BFF34F8F10BD8881FF1F61
:1046100010B50349D1F838018047BFF34F8F10BD63
:104620008881FF1F10B50349D1F83C018047BFF3D3
:104630004F8F10BD8881FF1F10B50349D1F840018D
:104640008047BFF34F8F10BD8881FF1F10B503490E
:10465000D1F844018047BFF34F8F10BD8881FF1F01
:1046600010B50349D1F848018047BFF34F8F10BD03
:104670008881FF1F10B50349D1F84C018047BFF373
:104680004F8F10BD8881FF1F10B50349D1F850012D
:104690008047BFF34F8F10BD8881FF1F10B50349BE
:1046A000D1F854018047BFF34F8F10BD8881FF1FA1
:1046B00010B50349D1F858018047BFF34F8F10BDA3
:1046C0008881FF1F10B50349D1F85C018047BFF313
:1046D0004F8F10BD8881FF1F10B50349D1F86001CD
:1046E0008047BFF34F8F10BD8881FF1F10B503496E
:1046F000D1F864018047BFF34F8F10BD8881FF1F41
:1047000010B50349D1F868018047BFF34F8F10BD42
:104710008881FF1F10B50349D1F86C018047BFF3B2
:104720004F8F10BD8881FF1F10B50349D1F870016C
:104730008047BFF34F8F10BD8881FF1F10B503491D
:10474000D1F874018047BFF34F8F10BD8881FF1FE0
:1047500010B50349D1F878018047BFF34F8F10BDE2
:104760008881FF1F10B50349D1F87C018047BFF352
:104770004F8F10BD8881FF1F10B50349D1F880010C
:104780008047BFF34F8F10BD8881FF1F10B50349CD
:10479000D1F884018047BFF34F8F10BD8881FF1F80
:1047A00010B50349D1F888018047BFF34F8F10BD82
:1047B0008881FF1F10B50349D1F88C018047BFF3F2
:1047C0004F8F10BD8881FF1F10B50349D1F89001AC
:1047D0008047BFF34F8F10BD8881FF1F10B503497D
:1047E000D1F894018047BFF34F8F10BD8881FF1F20
:1047F00010B50349D1F898018047BFF34F8F10BD22
:104800008881FF1F10B50349D1F89C018047BFF391
:104810004F8F10BD8881FF1F10B50349D1F8A0014B
:104820008047BFF34F8F10BD8881FF1F10B503492C
:10483000D1F8A4018047BFF34F8F10BD8881FF1FBF
:1048400010B50349D1F8A8018047BFF34F8F10BDC1
:104850008881FF1F10B50349D1F8AC018047BFF331
:104860004F8F10BD8881FF1F10B50349D1F8B001EB
:104870008047BFF34F8F10BD8881FF1F10B50349DC
:10488000D1F8B4018047BFF34F8F10BD8881FF1F5F
:1048900010B50349D1F8B8018047BFF34F8F10BD61
:1048A0008881FF1F10B50349D1F8BC018047BFF3D1
:1048B0004F8F10BD8881FF1F10B50349D1F8C0018B
:1048C0008047BFF34F8F10BD8881FF1F10B503498C
:1048D000D1F8C4018047BFF34F8F10BD8881FF1FFF
:1048E00010B50349D1F8C8018047BFF34F8F10BD01
:1048F0008881FF1F10B50349D1F8CC018047BFF371
:104900004F8F10BD8881FF1F10B50349D1F8D0012A
:104910008047BFF34F8F10BD8881FF1F10B503493B
:10492000D1F8D4018047BFF34F8F10BD8881FF1F9E
:1049300010B50349D1F8D8018047BFF34F8F10BDA0
:104940008881FF1F10B50349D1F8DC018047BFF310
:104950004F8F10BD8881FF1F10B50349D1F8E001CA
:104960008047BFF34F8F10BD8881FF1F10B50349EB
:10497000D1F8E4018047BFF34F8F10BD8881FF1F3E
:1049800010B50349D1F8E8018047BFF34F8F10BD40
:104990008881FF1F10B50349D1F8EC018047BFF3B0
:1049A0004F8F10BD8881FF1F10B50349D1F8F0016A
:1049B0008047BFF34F8F10BD8881FF1F10B503499B
:1049C000D1F8F4018047BFF34F8F10BD8881FF1FDE
:1049D00010B50349D1F8F8018047BFF34F8F10BDE0
:1049E0008881FF1F10B50349D1F8FC018047BFF350
:1049F0004F8F10BD8881FF1F00B585B06846FEF758
:104A0000CBFA4020ADF80A000020ADF80200ADF866
:104A10001000ADF80E006A4640210120FEF73CF878
:104A200005B000BD10B50446012C01D11049087035
:104A30000F48007888B140210120FEF72BF960B9BA
:104A40000A20FCF7ABFE0020094908704021012034
:104A5000FEF720F948B9012010BD40210120FEF7E2
:104A600019F9012801D1024908700020F4E700007B
:104A70003780FF1F10B5044604F0010048B100BFA5
:104A800040F223101A49086043F21020086000BF6A
:104A900000BF04F0020028B100BF164816490861A3
:104AA00000BF00BF04F0040030B100BF4AF2015063
:104AB0001249088000BF00BF04F0100018B14AF28C
:104AC000085000F0D9F804F0400018B14AF2035041
:104AD00000F0D2F804F0800040B100BF7720084910
:104AE000086007490831086000BF00BF10BD000022
:104AF000000401400100A5A500800440FC3B0540E6
:104B0000040805402DE9F04104460D4616466FF0B5
:104B10000207002E24D029462046B0470746A7B9F1
:104B200000BF1148046000BF0DB9002108E00F4923
:104B3000096AC1F302620E490968D140B1FBF5F17F
:104B400008460C49086000BF0AE04FF0FF3700BF7D
:104B500007B904E040F27D1107A0FCF7D7FD00BFC4
:104B60003846BDE8F08100000880FF1F0040054086
:104B70006481FF1F0C80FF1F2E2E2F2E2E2F64729C
:104B800069766572732F686333325F6C6C5F647231
:104B9000697665722F7372632F686333325F6C6C52
:104BA0005F7574696C6974792E6300001FB50E48D7
:104BB000FEF772FC01A8FFF723F8022001900B48D2
:104BC0000290032003906A4601A90748FEF78AFD78
:104BD000044601210448FEF78FFB214604A001F0A2
:104BE00041FF204604B010BD00E00440400D03002A
:104BF0006572725F636F64653A25640A00000000A5
:104C000010B500BF0F48008800F00200022800D154
:104C100004E040F23F410CA0FCF778FD00BF0948DA
:104C2000001D007800F0C00040F00F000549091D8C
:104C3000087010200349113108701E20FCF7CEFDCA
:104C4000002010BDFE4305402E2E2F2E2E2F647205
:104C500069766572732F686333325F6C6C5F647260
:104C6000697665722F7372632F686333325F6C6C81
:104C70005F7077632E630000034909880143034A8C
:104C8000A2F8FE1370470000FE43054000400540B7
:104C900010B50120074908704FF4FA7006490880E2
:104CA00000220121054801F0CFFA01210448FCF758
:104CB000B7FE10BD3C80FF1F3E80FF1F0014024066
:104CC0000030054000B500200D49087240224FF425
:104CD000F820FDF73BFE0A480078F02803DC08487E
:104CE0000078BC2801D0002000BD0548007A08B13A
:104CF000012000E000200349087008460078F3E72F
:104D00008883FF1F5380FF1F00B500200D49C87224
:104D100040224FF4F820FDF719FE0A480078F028E9
:104D200003DC08480078BC2801D0002000BD0548FD
:104D3000C07A08B1012000E000200349087008464D
:104D40000078F3E78883FF1F5680FF1F002001498A
:104D5000087070474580FF1F2DE9F04704460F4655
:104D600090464FF0000900BF24B144F00F000F2817
:104D700000D103E0AA2126A0FCF7C8FC00BF00BFB9
:104D8000072F00D803E0AB2121A0FCF7BFFC00BF38
:104D900000BFB8F1070F00D803E0AC211CA0FCF75E
:104DA000B5FC00BF00BF26480068772800D103E0AB
:104DB000AD2117A0FCF7AAFC00BF24E004F001001D
:104DC000E0B14FEAC960050E281DC6B207FA05F02A
:104DD00008FA06F108430721A9400722B24011430F
:104DE00008400721A9400722B2401143144A121F6C
:104DF00012688A4310431249091F0860640809F1C8
:104E0000010000F0FF09002CD8D1BDE8F0870000B8
:104E10002E2E2F2E2E2F647269766572732F686383
:104E200033325F6C6C5F6472697665722F73726384
:104E30002F686333325F6C6C5F7372616D2E630039
:104E4000040805407FB505460C460026B8480068B2
:104E50000390B74840680290B54880680190B44814
:104E6000C068009000BF04F0E060E8B104F0E060CA
:104E7000B0F1807F18D004F0E060B0F1007F13D073
:104E800004F0E060B0F1407F0ED004F0E060B0F1DB
:104E9000806F09D004F0E060B0F1A06F04D004F09E
:104EA000E060B0F1C06F00D104E040F2AE21A1A0FB
:104EB000FCF72CFC00BF00BF04F07000B8B104F098
:104EC0007000102813D004F0700020280FD004F0D8
:104ED000700030280BD004F07000402807D004F098
:104EE0007000502803D004F07000602800D104E066
:104EF00040F2AF218FA0FCF709FC00BF00BF04F413
:104F0000E020E8B104F4E020B0F5803F18D004F4CC
:104F1000E020B0F5003F13D004F4E020B0F5403FAE
:104F20000ED004F4E020B0F5802F09D004F4E02086
:104F3000B0F5A02F04D004F4E020B0F5C02F00D1CC
:104F400004E04FF42C717BA0FCF7E0FB00BF00BF36
:104F500004F4E000E8B104F4E000B0F5801F18D0DC
:104F600004F4E000B0F5001F13D004F4E000B0F545
:104F7000401F0ED004F4E000B0F5800F09D004F417
:104F8000E000B0F5A00F04D004F4E000B0F5C00FCD
:104F900000D104E040F2B12166A0FCF7B7FB00BFEE
:104FA00000BF04F00700B8B104F00700012813D0D7
:104FB00004F0070002280FD004F0070003280BD0EC
:104FC00004F00700042807D004F00700052803D0E8
:104FD00004F00700062800D104E040F2B22155A0F9
:104FE000FCF794FB00BF00BF04F4E060E8B104F4F8
:104FF000E060B0F5807F18D004F4E060B0F5007F89
:1050000013D004F4E060B0F5407F0ED004F4E0600B
:10501000B0F5806F09D004F4E060B0F5A06F04D063
:1050200004F4E060B0F5C06F00D104E040F2B321B9
:1050300040A0FCF76BFB00BF00BF04F4E040E8B108
:1050400004F4E040B0F5805F18D004F4E040B0F51F
:10505000005F13D004F4E040B0F5405F0ED004F4DC
:10506000E040B0F5804F09D004F4E040B0F5A04F27
:1050700004D004F4E040B0F5C04F00D104E04FF498
:105080002D712CA0FCF742FB00BF00BF3548284023
:1050900000B104E040F2B52126A0FCF737FB00BFC9
:1050A00000BF3148008800F0010000B104E040F288
:1050B000B62120A0FCF72AFB00BF2C48007800F0A6
:1050C0000700052817D1012600BF1948006900F024
:1050D000010000B104E040F2BD2116A0FCF716FB70
:1050E00000BF234812490860C01248608860C86049
:1050F0001E20FCF773FB1D482638006AA84304EA0B
:10510000050108431949263908621E20FCF766FB91
:10511000012E0BD106490398086002984860019857
:1051200088600098C8601E20FCF758FB7FBD000017
:10513000008004402E2E2F2E2E2F64726976657209
:10514000732F686333325F6C6C5F6472697665726B
:105150002F7372632F686333325F6C6C5F636C6BA9
:105160002E63000077777707FE4305402640054011
:10517000EEFAFFFF7FB50446002530480068039033
:105180002E48406802902D48806801902B48C068E6
:10519000009000BF4CB1012C07D0022C05D0032C8D
:1051A00003D0042C01D0052C00D104E04FF4117180
:1051B00023A0FCF7ABFA00BF00BF2D48008800F029
:1051C000010000B104E040F245211DA0FCF79EFA69
:1051D00000BF2848007800F00700052801D0052C02
:1051E00017D1012500BF1548006900F0010000B18A
:1051F00004E040F24D2112A0FCF788FA00BF1E48DF
:105200000E490860C01248608860C8601E20FCF724
:10521000E5FA184804701E20FCF7E0FA012D0BD1C6
:1052200006490398086002984860019888600098D1
:10523000C8601E20FCF7D2FA7FBD00000080044049
:105240002E2E2F2E2E2F647269766572732F68634F
:1052500033325F6C6C5F6472697665722F73726350
:105260002F686333325F6C6C5F636C6B2E6300007E
:10527000FE43054026400540EEFAFFFF07281DD2F9
:10528000DFE800F01C04080C1014180007210C4A79
:10529000117013E002210A4A11700FE00421084A3C
:1052A00011700BE00321064A117007E00521044A42
:1052B000117003E00621024A117000BF00BF704761
:1052C0002480FF1F2DE9F34F2DED088B8BB08A460C
:1052D0008A4B0FCB03AC0FC44FF0FF30029000BFDE
:1052E0008749139888420BD086491398884207D083
:1052F00085491398884203D084491398884200D185
:1053000004E040F2EB1182A0FCF700FA00BFDAF8EB
:105310000040DAF80470002C7DD0002FFCD01398E8
:10532000406900F4600500BF5DB1B5F5001F08D00D
:10533000B5F5C00F05D0B5F5200F02D0B5F5400F7B
:1053400000D104E040F2F11171A0FCF7DFF900BFD9
:10535000680D03A931F8105007FB05F04000B4FBBD
:10536000F0F0461EFF2E7ED8CAF8086007FB05F055
:105370004000B4FBF0F100FB11400790079830B9F2
:105380009FED700A8AED040A002002906BE0022073
:10539000A0FB051200204FF0010C16EB0C0C40EBAB
:1053A0000003A1FB0C0E02FB0CE201FB0322002117
:1053B000A0FB078302FB073200FB01294FF4807139
:1053C0000022A8FB01C309FB013108FB02105208AF
:1053D0004FEA34031CEB0301504122460023CDE980
:1053E000001008460199FAF787FF8021B0EB010B06
:1053F000BBF17F0F37D8CAF80CB049004FF0000C52
:105400004246A2FB010E09FB01E108FB0C19804694
:105410000020802200E06BE01BEB020240EB000367
:105420000021A2FB040C03FB04C302FB0131CDE904
:10543000080140464946FBF730F841EC1A0BDDE91C
:105440000801FBF72AF853EC1A2BFAF7AAFFFBF72F
:1054500030F800EE100AF7EE000A30EE608A8AEDAE
:10546000048A002002900298B0F1FF3F40D104EB83
:105470008400410007FB05F04000B1FBF0F0401D47
:105480000A21B0FBF1F0461EFF2E31D8CAF80860A1
:105490000220A0FB051200204FF0010C16EB0C0CB3
:1054A00040411346A1FB0C2E03FB0CE301FB003132
:1054B0000023A2FB078C01FB07C102FB0319404636
:1054C0004946FAF7EAFF41EC1A0B2046FAF7D8FFF3
:1054D00053EC1A2BFAF765FFFAF7EBFF00EE100A10
:1054E000F7EE000A30EE608A8AED048A002002900E
:1054F00002980BB0BDEC088BBDE8FC8F248D010039
:1055000000D0014000D401400010024000140240CD
:105510002E2E2F2E2E2F647269766572732F68637C
:1055200033325F6C6C5F6472697665722F7372637D
:105530002F686333325F6C6C5F75736172742E63B6
:10554000000000000000000070B52B4D2D6805F034
:1055500001051DB1294D2A4E356002E0294D284E26
:105560003560294D2D7805F00700062840D2DFE888
:1055700000F003080C11151A214D2D68234E3560DB
:1055800037E0234D214E356033E04FF400451F4E88
:1055900035602EE01E4D1D4E35602AE04FF400456B
:1055A0001A4E356025E0184DDA352D68C5F308220E
:1055B000154D263DD5F800512B0F134DDA352D68CA
:1055C00005F01F04104D263DD5F8005105F080056B
:1055D0000DB90F4901E00A4D2968651CB1FBF5F5CD
:1055E000561C75435E1CB5FBF6F5084E356000E0B1
:1055F00000BF00BF70BD0000840601400024F4001D
:105600006881FF1F002D3101264005406481FF1F86
:1056100000127A0000B50748006840F470000549A0
:105620000860FFF791FF4FF480300249803908602D
:1056300000BD000088ED00E010B586B00121022019
:10564000FDF71CF901214804FDF784F802A800F0D9
:105650003DFC002002900390049040F2E730ADF84A
:10566000140002AA00212A4800F0B8FA0120FCF731
:1056700095F801220021264800F05AFA0120FCF793
:105680008DF801220421224800F052FB0120FCF792
:1056900085F84220ADF800000720ADF802001D4853
:1056A00001906846FEF734FCBDF90200002807DBD4
:1056B00000F01F0101228A401749430941F82320C5
:1056C00000BFBDF902000F21002804DB0A07130EFA
:1056D000124A135406E00A07140E114A00F00F0391
:1056E0001B1FD45400BFBDF9020000280DDB00BF12
:1056F00000BF00F01F02012191404209920002F117
:10570000E022C2F8001100BF00BF00BF06B010BD0C
:10571000004402402557010080E200E000E400E080
:1057200018ED00E010B5604800686421B0FBF1F2AC
:1057300001FB120020B95D480068401C5B4908600D
:10574000594800684FF47A71B0FBF1F201FB120086
:1057500000282ED156480088401C554908805548DD
:105760000088401C5349088053480088401C524917
:10577000088052480088401C5049088050480078F2
:1057800000F00100B0B14E48007800F0800088B110
:105790004C480088401C4B4908800120FBF72FFA39
:1057A00048480088232874DB002046490880444983
:1057B00008706EE04248007800F00100B0B1404847
:1057C000007800F0400088B13E480088401C3D4908
:1057D00008800220FBF713FA3A480088232858DB98
:1057E0000020384908803649087052E03448007873
:1057F00000F00100B0B13248007800F0200088B11C
:1058000030480088401C2F4908800420FBF7F7F936
:105810002C48008823283CDB00202A49088028499E
:10582000087036E02648007800F00100B0B1244846
:10583000007800F0100088B122480088401C2149FF
:1058400008800720FBF7DBF91E480088232820DBAF
:1058500000201C4908801A4908701AE0184800788E
:1058600000F0010088B117480088401C15490880E5
:105870000020FBF7C4F913480088322809DB002018
:10588000104908800E49087003E00F480078FBF7C4
:10589000B6F905480068401C034908604FF48031A0
:1058A0000A4800F015F810BD2880FF1F2C80FF1F4C
:1058B0001880FF1F1A80FF1F1C80FF1F1E80FF1F04
:1058C0002580FF1F2280FF1F2480FF1F004402400D
:1058D00070B504460D4600BF0F48844202D00F4801
:1058E000844200D104E04FF417710DA0FBF70EFFC6
:1058F00000BF00BF2DB145F00110B0F1011F00D174
:1059000004E040F25D2106A0FBF700FF00BF6069E4
:10591000A843606170BD00000040024000440240A6
:105920002E2E5C2E2E5C647269766572735C6863E1
:1059300033325F6C6C5F6472697665725C7372633C
:105940005C686333325F6C6C5F746D72302E630021
:105950002DE9FF41064601210220FCF78FFF4FF49D
:10596000A06000903020019000200290019808B9BA
:10597000072410E00198102801D105240BE00198BC
:10598000202805D00198302802D00198402801D164
:10599000032400E00224019801090120884085B217
:1059A0007019401EB0FBF5F0001B87B2ADF80C700B
:1059B0006A460121074800F011F901221146054805
:1059C00000F060F801221146024800F005F8BDE839
:1059D000FF8100000044024070B504460D461646A3
:1059E00000BF1A48844202D01948844200D104E022
:1059F0004FF4047117A0FBF789FE00BF00BF0DB183
:105A0000012D00D104E040F2112112A0FBF77EFE2F
:105A100000BF00BF0EB1012E00D104E040F2122100
:105A20000CA0FBF773FE00BF012E06D120692A01EE
:105A3000B10391400843206106E020692A014FF438
:105A4000804191408843206170BD000000400240C9
:105A5000004402402E2E5C2E2E5C647269766572C4
:105A6000735C686333325F6C6C5F64726976657215
:105A70005C7372635C686333325F6C6C5F746D720D
:105A8000302E630070B504460D46164600BF1A4816
:105A9000844202D01948844200D104E04FF4EF71EF
:105AA00017A0FBF733FE00BF00BF0DB1012D00D1E1
:105AB00004E040F2DF1112A0FBF728FE00BF00BF98
:105AC0000EB1012E00D104E04FF4F0710CA0FBF7F1
:105AD0001DFE00BF012E06D120692A01310391402D
